:1000000027C041C040C03FC03EC041C13CC03BC012
:100010003AC039C038C037C036C035C034C005C159
:1000200006C107C108C109C10AC10BC10102000014
:100030000400010204081020020202020202000071
:10004000000036000000000038000000000037000B
:1000500011241FBECFE5D2E0DEBFCDBF10E0A0E689
:10006000B0E0ECE4F5E002C005900D92A636B107D1
:10007000D9F720E0A6E6B0E001C01D92AB37B20789
:10008000E1F7F0D061C2BCCF61E080E08ED161E0E9
:1000900081E08BD161E082E088D162E084E085C1BB
:1000A00060E080E0D1D160E081E0CED160E082E02C
:1000B000CBC184E68093640061E080916900813067
:1000C00009F460E06093690080E0BEC18BE4809336
:1000D000640061E080916900813009F460E0609320
:1000E000690081E0B1C182E38093640061E08091A6
:1000F0006900813009F460E06093690082E0A4C186
:1001000082E38093640061E080916900813009F4AA
:1001100060E06093690080E097D16091690081E0C0
:1001200093D16091690082E08FC18EE18093640079
:1001300060E08091680088D1809168008F5F833093
:1001400018F48093680002C01092680061E080910A
:1001500068007AC18EE180936400E0916600F0E06F
:10016000E05AFF4F60E080816FD1809166008F5F21
:10017000843018F48093660002C010926600E0910B
:100180006600F0E0E05AFF4F61E080815DC10F93AF
:100190001F9384E09ED1892B21F5C3D000916A0082
:1001A00010916B0020916C0030916D00DC01CB014F
:1001B000801B910BA20BB30BC297A105B10588F070
:1001C000B0D060936A0070936B0080936C00909342
:1001D0006D00809167008F5F8730F0F110926700AB
:1001E0005FDF9FD000916E0010916F002091700032
:1001F00030917100AB01BC01401B510B620B730BC2
:100200008091640090E0A0E0B0E0481759076A07C9
:100210007B0728F1E09167008E2F90E087309105F1
:1002200088F4FC01E15FFF4F09943ADF0BC041DF26
:1002300009C04CDF07C057DF05C062DF03C075DFB0
:1002400001C088DF6ED060936E0070936F00809362
:1002500070009093710003C080936700C1CF1F911D
:100260000F91089581B781BF68D00EDF90DFFECF78
:1002700080B7807F80BF80B7806880BF8CB5806486
:100280008CBD8FEF8DBD80B7876080BF08951F92B2
:100290000F920FB60F9211242F933F938F939F933A
:1002A000AF93BF938091730090917400A0917500FB
:1002B000B09176003091720026E0230F2D3730F098
:1002C00029E8230F0396A11DB11D03C00296A11DAD
:1002D000B11D209372008093730090937400A093DB
:1002E0007500B09376008091770090917800A0918E
:1002F0007900B0917A000196A11DB11D809377001D
:1003000090937800A0937900B0937A00BF91AF9159
:100310009F918F913F912F910F900FBE0F901F9043
:1003200018952FB7F89460917300709174008091C4
:100330007500909176002FBF08958AB582608ABDBE
:100340008AB581608ABD83B7887F836083BF7894D4
:1003500089B7826089BF8CDF86B18877866886B965
:10036000379A0895813031F48AB58F778ABD8AB57E
:100370008F7B07C0823039F48AB58F7D8ABD8AB5FC
:100380008F7E8ABD0895833039F480B78F7D80BF1A
:1003900080B78F7E80BF0895843031F48CB58F7D17
:1003A0008CBD8CB58F7E8CBD0895CF93DF9387FF76
:1003B00011C08F7741F0813041F0823041F08330BD
:1003C00041F08FEF07C085E005C082E003C084E004
:1003D00001C083E090E0FC01EE5CFF4F2491FC0142
:1003E000E85CFF4F8491882361F190E0880F991FAA
:1003F000FC01E65BFF4FC591D491FC01EC5BFF4F24
:10040000A591B491611109C09FB7F8948881209596
:1004100082238883EC912E230BC0623061F49FB756
:10042000F8948881322F309583238883EC912E2B8A
:100430002C939FBF06C08FB7F894E8812E2B28839A
:100440008FBFDF91CF9108951F93CF93DF93162F26
:1004500087FF11C08F7741F0813041F0823041F049
:10046000833041F08FEF07C085E005C082E003C014
:1004700084E001C083E0282F30E0F901E45DFF4F04
:100480008491F901EE5CFF4FD491F901E85CFF4FD4
:10049000C491CC23D1F0811165DFEC2FF0E0EE0F99
:1004A000FF1FEC5BFF4FA591B491111108C09FB7DE
:1004B000F8948C91D095D823DC939FBF06C08FB75A
:1004C000F894EC91DE2BDC938FBFDF91CF911F91DD
:1004D0000895CF93DF9387FF11C08F7741F081306C
:1004E00041F0823041F0833041F08FEF07C085E06A
:1004F00005C082E003C084E001C083E0282F30E023
:10050000F901E45DFF4F8491F901EE5CFF4FD49156
:10051000F901E85CFF4FC491CC2389F0811122DFFF
:10052000EC2FF0E0EE0FFF1FE25CFF4FA591B491BE
:10053000EC91ED2381E090E021F480E002C080E0C6
:0C05400090E0DF91CF910895F894FFCF78
:06054C0000010201640041
:00000001FF
